:1000000040C05CC334C362C061C060C05FC05EC03A
:100010005DC0E3C25BC09EC378C358C057C056C022
:1000200055C054C053C000000000370034003100F8
:1000300000000000380035003200000000003600EB
:100040003300300004040404040404040202020225
:10005000020203030303030301020408102040808B
:100060000102040810200102040810200000000012
:100070000000000000030406000000000000000073
:10008000DC0311241FBECFE5D4E0DEBFCDBF10E0FE
:10009000A0E6B0E0EAEDFCE002C005900D92A83ABF
:1000A000B107D9F721E0A8EAB0E001C01D92A03A5B
:1000B000B207E1F710E0C1E4D0E003C02197FE01F0
:1000C00000D6C034D107D1F71CD405C699CFCF9242
:1000D000DF92EF92FF920F931F93CF93DF93C09025
:1000E0005A01D0905B010D2C000CEE08FF08C09166
:1000F0005601D091570100915E0110915F0120914E
:100100005C0130915D012F5F3F4FC901330FAA0B96
:10011000BB0B9C01AD012C193D094E095F09D801AB
:1001200017FD1F9684E0B595A7958A95E1F795D5BB
:100130009E010D2E000C440B550B69D5C20ED31E2B
:10014000E41EF51ED0925901C092580194E0CC0FE4
:10015000DD1F9A95E1F717FF05C0D0935F01C093AB
:100160005E0107C0C017D10724F410925F011092FE
:100170005E01DF91CF911F910F91FF90EF90DF9083
:10018000CF9008958230F0F4E82FF0E0EE0FFF1FDB
:10019000E05AFF4F26EC32E031832083813039F082
:1001A00085B78C7F682B65BF8BB780640AC085B725
:1001B000837F660F771F660F771F682B65BF8BB72E
:1001C00080688BBF0895843039F0863049F08330E1
:1001D00051F48FB58F7702C08FB58F7D8FBD089595
:1001E00085B58F7D85BD0895CF93DF93282F30E0AF
:1001F000F901E459FF4F8491F901E85AFF4FD49176
:10020000F901EC5BFF4FC491CC2389F08111DBDF56
:10021000EC2FF0E0EE0FFF1FE65CFF4FA591B491CD
:10022000EC91ED2381E090E021F480E002C080E0D9
:1002300090E0DF91CF9108951F93CF93DF93282F04
:1002400030E0F901E459FF4F8491F901E85AFF4F7A
:10025000D491F901EC5BFF4FC491CC23B9F0162F78
:100260008111B1DFEC2FF0E0EE0FFF1FE05DFF4FDB
:10027000A591B4919FB7F894111104C08C91D095B9
:10028000D82302C0EC91DE2BDC939FBFDF91CF918E
:100290001F910895BF92CF92DF92EF92FF920F933A
:1002A0001F93CF93DF93C82ED62EB42EC7E0D0E095
:1002B000022F10E087E0E82EF12CB11005C0C70135
:1002C0008C1B9D0BB80102C0B8018C2F02C0759524
:1002D00067958A95E2F761708C2DAEDF61E08D2D18
:1002E000ABDF60E08D2DA8DF219738F7DF91CF914C
:1002F0001F910F91FF90EF90DF90CF90BF900895E6
:10030000CF93DF9390E0FC01E85AFF4F2491FC016A
:10031000EC5BFF4F8491882361F190E0880F991F77
:10032000FC01EA5DFF4FC591D491FC01E05DFF4FF8
:10033000A591B491611109C09FB7F8948881209567
:1003400082238883EC912E230BC0623061F49FB727
:10035000F8948881322F309583238883EC912E2B5B
:100360002C939FBF06C08FB7F894E8812E2B28836B
:100370008FBFDF91CF9108950895CF92DF92EF92D2
:10038000FF920F931F93CF93DF936C017A018B0140
:10039000C0E0D0E0CE15DF0581F0D8016D918D0170
:1003A000D601ED91FC910190F081E02DC6010995F7
:1003B000892B11F02196EECF7E01C701DF91CF91FD
:1003C0001F910F91FF90EF90DF90CF9008950895C7
:1003D00080E090E00895FC01538D448D252F30E09E
:1003E000842F90E0821B930B541710F0CF96089542
:1003F00001970895FC01918D828D981761F0828D8F
:10040000DF01A80FB11D5D968C91928D9F5F9F7348
:10041000928F90E008958FEF9FEF0895FC01918DEA
:10042000828D981731F0828DE80FF11D858D90E057
:1004300008958FEF9FEF0895FC01918D228D892FF4
:1004400090E0805C9F4F821B91098F7399270895DC
:1004500087EB90E0F1DF21E0892B09F420E0822F87
:100460000895FC01848DDF01A80FB11DA35ABF4F71
:100470002C91848D90E001968F739927848FA689A3
:10048000B7892C93A089B1898C9182748C93938DB8
:10049000848D981306C00288F389E02D80818F7DBA
:1004A00080830895EF92FF920F931F93CF93DF9372
:1004B000EC0181E0888F9B8D8C8D981305C0E889B5
:1004C000F989808185FD25C0F62E0B8D10E00F5F28
:1004D0001F4F0F731127E02E8C8DE8120BC00FB643
:1004E00007FCFACFE889F989808185FFF5CFCE0135
:1004F000B8DFF2CF8B8DFE01E80FF11DE35AFF4FFD
:10050000F0829FB7F8940B8FEA89FB898081806223
:1005100009C09FB7F894EE89FF896083E889F9895B
:100520008081827480839FBF81E090E0DF91CF91D2
:100530001F910F91FF90EF900895CF93DF93EC01FF
:10054000888D8823C1F0EA89FB89808185FD05C0FB
:10055000A889B9898C9186FD0EC00FB607FCF5CF2E
:10056000808185FFF2CFA889B9898C9185FFEDCF75
:10057000CE0177DFE8CFDF91CF91089580E090E062
:10058000892B19F065DF81113BCD089580915401CD
:100590002BDE892B29F08091550126DE892B59F01D
:1005A0008091540121DE892BB1F4809155011CDE2C
:1005B000892B39F4089580915E0190915F01019635
:1005C00005C080915E0190915F01019790935F015A
:1005D00080935E017CCD08957AD31F920F920FB65F
:1005E0000F9211242F933F938F939F93AF93BF93B9
:1005F0008091B3009091B400A091B500B091B60085
:100600003091B20026E0230F2D3720F40296A11D71
:10061000B11D05C029E8230F0396A11DB11D20932C
:10062000B2008093B3009093B400A093B500B09350
:10063000B6008091AE009091AF00A091B000B09153
:10064000B1000196A11DB11D8093AE009093AF0043
:10065000A093B000B093B100BF91AF919F918F91E3
:100660003F912F910F900FBE0F901F9018951F92E2
:100670000F920FB60F9211242F933F934F935F93D6
:100680006F937F938F939F93AF93BF93EF93FF935A
:10069000E0916200F09163000995FF91EF91BF91A5
:1006A000AF919F918F917F916F915F914F913F910A
:1006B0002F910F900FBE0F901F9018951F920F92C1
:1006C0000FB60F9211242F933F934F935F936F9325
:1006D0007F938F939F93AF93BF93EF93FF93E0919B
:1006E0006000F09161000995FF91EF91BF91AF918A
:1006F0009F918F917F916F915F914F913F912F913A
:100700000F900FBE0F901F9018951F920F920FB66B
:100710000F9211242F933F934F935F936F937F9387
:100720008F939F93AF93BF93EF93FF9387EB90E0EB
:1007300098DEFF91EF91BF91AF919F918F917F9143
:100740006F915F914F913F912F910F900FBE0F903E
:100750001F9018951F920F920FB60F9211242F938E
:100760008F939F93EF93FF93E091C700F091C800A0
:100770008081E091CD00F091CE0082FD12C0908189
:100780008091D0008F5F8F732091D100821751F03C
:10079000E091D000F0E0E954FF4F958F8093D000B6
:1007A00001C08081FF91EF919F918F912F910F90C8
:1007B0000FBE0F901F901895E7EBF0E013821282A6
:1007C00088EE93E0A0E0B0E084839583A683B783AE
:1007D0008AE990E09183808380E490E09587848724
:1007E00029E230E0378726872BE230E0318B208BFF
:1007F0002AE230E0338B228B958B848B8CE290E065
:10080000978B868B118E128E138E148E85E0E4E604
:10081000F0E0ADE6B1E001900D928A95E1F785E058
:10082000E9E6F0E0A2E7B1E001900D928A95E1F7E8
:1008300085E0EEE6F0E0A7E7B1E001900D928A9541
:10084000E1F785E0E3E7F0E0ACE7B1E001900D927D
:100850008A95E1F785E0E8E7F0E0A1E8B1E00190F2
:100860000D928A95E1F785E0EDE7F0E0A6E8B1E0CA
:1008700001900D928A95E1F785E0E2E8F0E0ABE8BF
:10088000B1E001900D928A95E1F785E0E7E8F0E0AC
:10089000A0E9B1E001900D928A95E1F785E0ECE8DE
:1008A000F0E0A5E9B1E001900D928A95E1F785E0CD
:1008B000E1E9F0E0AAE9B1E001900D928A95E1F753
:1008C000E1E6F1E016AE81E0808784E0818785E093
:1008D000828786E08387E4E5F1E01386128614863A
:1008E0001782168283E690E09187808783E0808379
:1008F00082E081838CED90E0938382831582148261
:100900000895789483B7826083BF83B7816083BF83
:1009100089B7816089BF1EBC8EB582608EBD8EB5E1
:1009200081608EBD8FB581608FBD85B5846085BDCA
:1009300085B5806485BD329A319A3098379A1AB855
:10094000E091C700F091C80082E08083E091C3008D
:10095000F091C4001082E091C500F091C60087E6D6
:1009600080831092CF00E091CB00F091CC0086E81C
:100970008083E091C900F091CA008081806180830A
:10098000E091C900F091CA00808188608083E09185
:10099000C900F091CA00808180688083E091C9001D
:1009A000F091CA0080818F7D808361E080916A012F
:1009B000A7DC61E080916B01A3DC61E080916C01B8
:1009C0009FDC59E6652E51E0752EE1E6F1E01192CB
:1009D00061E0E936F607D9F7C1E0C0939F0162E014
:1009E000809154018DDC62E08091550189DCC093D7
:1009F000600180915401823021F0833021F08FEF2B
:100A000003C080E001C081E063E070E0BBDB809167
:100A10005501823021F0833021F08FEF03C080E058
:100A200001C081E062E070E0ADDB2FB7F894809107
:100A3000B3009091B400A091B500B091B6002FBF63
:100A40008093AA009093AB00A093AC00B093AD004C
:100A500080919F0181110EC001E010E094E0392ED9
:100A600027E0A22EB12C88248A94912C48E0442EB1
:100A7000512C29C0E1E6F1E08FEF81936E167F06DD
:100A8000E1F7EACF0196853091050CF074C09093A0
:100A9000A9008093A8002FB7F8948091B30090919B
:100AA000B400A091B500B091B6002FBF8093AA000A
:100AB0009093AB00A093AC00B093AD0080919F01E8
:100AC00081115EC05BDD2FB7F8948091B3009091E7
:100AD000B400A091B500B091B6002FBF4091AA001C
:100AE0005091AB006091AC007091AD00841B950BF0
:100AF000A60BB70B85369105A105B105F8F220913B
:100B00009F01211126C08091A8009091A900222365
:100B100009F4B8CF23E0280F30E0A501421B530BA6
:100B2000D40102C0AA0FBB1F4A95E2F7AD01E32D25
:100B3000E81BF0E0B2016E1B7F0BD40102C0AA0FCC
:100B4000BB1F6A95E2F75A2F50955423EF59FE4F79
:100B500007C0E1E6F1E011926E167F06E1F7D3CF10
:100B6000BF0161567140261737070CF48BCF4081C7
:100B7000452B4193F5CF1093A9000093A8008BCF8C
:100B800081E6E82E81E0F82E6701C0E0D0E060E069
:100B900080916C0151DB80916901811111C0F601D6
:100BA000208140E060916B0180916A0173DB9801C4
:100BB0000C2E01C0220F0A94EAF7209541E013C0E1
:100BC000D70117962C9141E060916B0180916A01E9
:100BD00061DBC5018C1B9D0B980101C0220F8A951A
:100BE000EAF7209540E060916B0180916A0152DB49
:100BF00061E080916C0120DB2196BFEFCB1ADB0A0C
:100C0000E1E0EE1AF108C830D10509F65BCF052EF8
:100C100097FB16F400940FD057FD05D024D007FCA5
:100C200002D046F408C050954095309521953F4F2D
:100C30004F4F5F4F089590958095709561957F4FC8
:100C40008F4F9F4F089531D0A59F900DB49F900D69
:100C5000A49F800D911D11240895B7FFF4CFF3DFF9
:100C6000821B930B0895A1E21A2EAA1BBB1BFD0148
:100C70000DC0AA1FBB1FEE1FFF1FA217B307E4077B
:100C8000F50720F0A21BB30BE40BF50B661F771FD3
:100C9000881F991F1A9469F76095709580959095B3
:100CA0009B01AC01BD01CF010895A29FB001B39F8C
:100CB000C001A39F01D0B29F700D811D1124911D11
:100CC0000895EE0FFF1F0590F491E02D099481E047
:0A0CD00090E0F89400C0F894FFCF04
:100CDA00BC01BC0107050505070101010101070166
:100CEA0007040707010301070505070101070407B0
:100CFA0001070704070507070101010107050705A1
:100D0A00070705070101000000005202BD01EB01BF
:080D1A009D021C02FA010E0209
:00000001FF
